:100000000C945D000C9485000C9485000C94850084
:100010000C9485000C9485000C9485000C9485004C
:100020000C9485000C9485000C9485000C9485003C
:100030000C9485000C9485000C9485000C9485002C
:100040000C9426080C9485000C9434040C940E0433
:100050000C9485000C9485000C9485000C9485000C
:100060000C9466040C948500000000080002010056
:100070000003040700000000000000000000000072
:10008000250028002B0000000000240027002A0083
:10009000040404040404040402020202020203032E
:1000A0000303030301020408102040800102040836
:1000B00010200102040810202D0A11241FBECFEFCA
:1000C000D8E0DEBFCDBF11E0A0E0B1E0E0E0F9E1B3
:1000D00002C005900D92AC33B107D9F722E0ACE332
:1000E000B1E001C01D92A43CB207E1F710E0CDE5FC
:1000F000D0E004C02197FE010E94730CCC35D107DB
:10010000C9F70E9470080C947E0C0C940000CF92EA
:10011000DF92EF92FF920F931F93CF93DF936C01C7
:100120007A018B01C0E0D0E0CE15DF0581F0D80167
:100130006D918D01D601ED91FC910190F081E02D42
:10014000C6010995892B11F02196EECF7E01C701DA
:10015000DF91CF911F910F91FF90EF90DF90CF90A3
:100160000895FC01538D448D252F30E0842F90E0BD
:10017000821B930B541710F0CF96089501970895A2
:10018000FC01918D828D981761F0828DDF01A80F9F
:10019000B11D5D968C91928D9F5F9F73928F90E0C1
:1001A00008958FEF9FEF0895FC01918D828D981730
:1001B00031F0828DE80FF11D858D90E008958FEF6D
:1001C0009FEF0895FC01918D228D892F90E0805C36
:1001D0009F4F821B91098F739927089589EF91E0B2
:1001E0000E94E20021E0892B09F420E0822F08958B
:1001F000FC01848DDF01A80FB11DA35ABF4F2C91C4
:10020000848D90E001968F739927848FA689B78992
:100210002C93A089B1898C91837080648C93938D89
:10022000848D981306C00288F389E02D80818F7D2C
:1002300080830895EF92FF920F931F93CF93DF93E4
:10024000EC0181E0888F9B8D8C8D981305C0E88927
:10025000F989808185FD26C0F62E0B8D10E00F5F99
:100260001F4F0F731127E02E8C8DE8120CC00FB6B4
:1002700007FCFACFE889F989808185FFF5CFCE01A7
:100280000E94F800F1CF8B8DFE01E80FF11DE35ABB
:10029000FF4FF0829FB7F8940B8FEA89FB8980812A
:1002A00080620AC09FB7F894EE89FF896083E8896D
:1002B000F98980818370806480839FBF81E090E0B2
:1002C000DF91CF911F910F91FF90EF900895CF9301
:1002D000DF93EC01888D8823C9F0EA89FB8980814E
:1002E00085FD05C0A889B9898C9186FD0FC00FB620
:1002F00007FCF5CF808185FFF2CFA889B9898C9161
:1003000085FFEDCFCE010E94F800E7CFDF91CF91BE
:10031000089580E090E0892B29F00E94EE00811181
:100320000C940000089521E001C0220F6A95EAF7BD
:10033000DC011C962C931C971A965C934E9319978C
:10034000ED91FC910484F585E02D60E00994089519
:100350000895DC01ED91FC910684F785E02D41E0E4
:10036000099581E090E00895DC01ED91FC9106840F
:10037000F785E02D40E009940895089585ED809378
:10038000BC008091BC0084FDFCCF1092D301089585
:1003900040917C01262F30E0240F311D21323105A0
:1003A000DCF42091D3012430C9F4FC0180E090E01A
:1003B000861758F430917C012191DC01A45ABE4F7C
:1003C000A30FB11D2C930196F3CF80917C01680F90
:1003D00060937C0180E0089581E0089582E00895B3
:1003E0000895E091A4018091A301E81730F4F0E0B2
:1003F000E45CFE4F808190E008958FEF9FEF0895B9
:100400009091A4018091A301981750F4E92FF0E096
:10041000E45CFE4F208130E09F5F9093A40102C016
:100420002FEF3FEFC90108958091A30190E0209143
:10043000A401821B91090895CF92DF92EF92FF925F
:100440000F931F93CF93DF937C01CB018A012091FF
:10045000D401222389F0EB016B01C40ED51ECC150B
:10046000DD0569F06991D701ED91FC910190F08172
:10047000E02DC7010995F3CF642F0E94C801C80180
:10048000DF91CF911F910F91FF90EF90DF90CF9070
:100490000895CF93DF931F92CDB7DEB76983209184
:1004A000D4012223D1F02091F701203240F021E045
:1004B00030E0FC013383228380E090E015C080911E
:1004C000D501E82FF0E0EA52FE4F998190838F5FCB
:1004D0008093D5018093F70105C061E0CE010196BC
:1004E0000E94C80181E090E00F90DF91CF910895C4
:1004F000089580E090E008950F931F93CF93DF93CA
:10050000EC01423018F08C8188608C834F836887BF
:10051000222329F0413019F48C8184608C8364E6B5
:1005200070E080E090E00E94EC076C8164FD31C0D7
:10053000E881F9810684F785E02D42E063E0CE0191
:1005400009958BE496E40197F1F7E881F981068437
:10055000F785E02D42E063E0CE01099503E512E066
:10056000C8010197F1F7E881F9810684F785E02D4C
:1005700042E063E0CE010995C8010197F1F7E881F7
:10058000F9810684F785E02D42E062E0CE0109950D
:1005900017C06062CE010E94B4018BE496E401971B
:1005A000F1F76C816062CE010E94B40103E512E0B4
:1005B000C8010197F1F76C816062CE010E94B4011D
:1005C000C8010197F1F76C816062CE010E94B4010D
:1005D0008BEE90E00197F1F784E08D836CE0CE0123
:1005E0000E94B40161E0CE010E94B4018BE39FE15F
:1005F0000197F1F782E08E8366E0CE010E94B4019C
:10060000E881F9810484F585E02D6FEFCE01DF915B
:10061000CF911F910F9109948F929F92AF92BF92A9
:10062000EF92FF920F931F93CF93DF93CDB7DEB777
:10063000A1970FB6F894DEBF0FBECDBF7C01FA01C3
:10064000CB0119A2223008F42AE08E010F5D1F4F62
:10065000822E912CA12CB12CBF01A50194010E94E6
:100660003D0CF901CA01015011096A3014F4605DB2
:1006700001C0695CD8016C93232B242B252B61F7D7
:100680000115110591F0F80101900020E9F731976B
:10069000AF01401B510BD701ED91FC910280F3811A
:1006A000E02DB801C701099502C080E090E0A19655
:1006B0000FB6F894DEBF0FBECDBFDF91CF911F9173
:1006C0000F91FF90EF90BF90AF909F908F90089503
:1006D0000E94790C0F931F93CF93DF93062F0F7017
:1006E000423019F440E0602F0EC0142FEC0170E08E
:1006F00084E0759567958A95E1F7CE010E945906C9
:10070000412F602FCE01DF91CF911F910F910C945B
:100710005906FC0184858823A9F02185328521159D
:10072000310519F4611106C007C02130310521F4EB
:10073000611102C0858701C015866585CF010E96BF
:100740000C9434060895EF92FF920F931F93CF936A
:10075000DF93EC01062FF42EE22E8B85888B10920E
:10076000A4011092A3011092D5011092F7011092EA
:10077000D30111E01093D2011092AD0161E082E14A
:100780000E94890661E083E10E9489068091B90098
:100790008E7F8093B9008091B9008D7F8093B900DE
:1007A00088E48093B80085E48093BC0087EA91E0F8
:1007B0009093A2018093A10188EA91E09093A00117
:1007C00080939F0188891093D4018093F601109241
:1007D000D5011092F7010E94D80591E0811190E0B7
:1007E000998B811105C086E992E00E9400028E87F4
:1007F0008989882339F01F861C8260E0CE010E961D
:100800000E9434062E2D4F2D602FCE01DF91CF9107
:100810001F910F91FF90EF900C947C021F920F920A
:100820000FB60F9211242F933F934F935F936F93C3
:100830007F938F939F93AF93BF93EF93FF9389EF32
:1008400091E00E94F800FF91EF91BF91AF919F91CD
:100850008F917F916F915F914F913F912F910F9069
:100860000FBE0F901F9018951F920F920FB60F9208
:1008700011242F938F939F93EF93FF93E09109029D
:10088000F0910A028081E0910F02F091100282FD46
:1008900012C09081809112028F5F8F73209113029A
:1008A000821751F0E0911202F0E0E750FE4F958F71
:1008B0008093120201C08081FF91EF919F918F91EF
:1008C0002F910F900FBE0F901F9018951F920F92AF
:1008D0000FB60F9211242F933F934F935F936F9313
:1008E0007F938F939F93AF93BF93EF93FF938091E9
:1008F000B900887F803609F49CC068F5883209F415
:100900005BC090F4803109F454C038F4882309F4B2
:10091000F6C0883009F44DC0F6C0883109F44CC0E7
:10092000803209F45DC0EFC0803409F468C048F437
:10093000803309F455C0883309F0E5C08093D101B4
:10094000D8C0803509F44FC0883509F45DC08834BB
:1009500009F0D9C0D6C0883909F4C7C0A8F48837CF
:1009600009F467C038F4883609F463C0803709F4A5
:1009700060C0C9C0883809F4B8C0803909F45FC0C4
:10098000803809F0C0C05BC0803B09F486C038F4F1
:10099000803A09F466C0883A09F47FC0B4C0803C4C
:1009A00009F4A7C0883C09F4A4C0883B09F48AC0B4
:1009B000AAC08091AE0110C09091D0018091CF016A
:1009C000981770F5E091D00181E08E0F8093D001EF
:1009D000F0E0E155FE4F80818093BB0085EC86C03E
:1009E0008093D1018EC0E091D00181E08E0F809381
:1009F000D0018091BB00F0E0E155FE4F80839091E3
:100A0000D0018091CF016EC0E091D00181E08E0FC6
:100A10008093D0018091BB00F0E0E155FE4F8083D0
:100A20008091D20181116DC081E08093AD0184EA93
:100A300061C083E08093D30110929E01CFCF80915B
:100A40009E01803208F051C0E0919E0181E08E0F3E
:100A500080939E018091BB00F0E0E258FE4F8083BE
:100A6000BDCF85EC8093BC001092D30180919E0194
:100A7000803230F4E0919E01F0E0E258FE4F1082A7
:100A800060919E0170E0E0919F01F091A0018EE7DE
:100A900091E0099510929E0136C084E08093D301C5
:100AA00010927D0110927C01E091A101F091A201D0
:100AB000099580917C01811105C081E080937C01C2
:100AC00010925C01E0917D0181E08E0F80937D01A9
:100AD000F0E0E45AFE4F80818093BB0090917D014D
:100AE00080917C01981708F479CF85E88093BC0049
:100AF0000AC085EC8093BC001092D30104C0109210
:100B0000D1010E94BE01FF91EF91BF91AF919F91E2
:100B10008F917F916F915F914F913F912F910F90A6
:100B20000FBE0F901F9018953FB7F8948091C002A8
:100B30009091C102A091C202B091C30226B5A89BB8
:100B400005C02F3F19F00196A11DB11D3FBFBA2F5F
:100B5000A92F982F8827820F911DA11DB11DBC01BF
:100B6000CD0142E0660F771F881F991F4A95D1F784
:100B7000089590E0FC01EC55FF4F2491FC01E057F3
:100B8000FF4F8491882399F090E0880F991FFC0112
:100B9000EA57FF4FA591B491FC01E458FF4F8591AE
:100BA00094918FB7F894EC91E22BEC938FBF08955A
:100BB0003091F701313208F04BC08091D30181119F
:100BC000FCCF9091F60122E02093D30121E0209305
:100BD000D2012FEF2093D1011092D0013093CF0199
:100BE000E6EDF1E0AFEAB1E020E0321721F041910B
:100BF0004D932F5FFACF1092AE012091AE01990F65
:100C0000922B9093AE019091AD01913061F41092CE
:100C1000AD019091AE019093BB009091BC0093FD0B
:100C2000F8CF95EC01C095EE9093BC009091D30164
:100C30009230E1F39091D1019F3F79F08091D10101
:100C4000803241F08091D101803331F084E005C0E1
:100C500081E003C082E001C083E01092D5011092D0
:100C6000F7011092D4010895FC0183818823C1F01B
:100C7000962F6181609569236083828191E09093D2
:100C8000D4018093F6011092D5011092F70186E904
:100C900092E00E9449020E94D805282F30E002C04D
:100CA00020E030E081E090E0232B11F080E090E044
:100CB0000895EF92FF920F931F93CF938C01FC0145
:100CC00084E0C0E060FF02C09589C92B6695815021
:100CD00031968111F7CF413011F4F8014489F801C0
:100CE0008585C82BC42B7801FEE0EF0EF11CF801BE
:100CF00062896C2BC7010E943406F80162896095F5
:100D00006C23C701CF911F910F91FF90EF900C942E
:100D1000340690E0FC01E859FF4F2491FC01EC55AA
:100D2000FF4F3491FC01E057FF4FE491EE2309F4AB
:100D30003CC0222339F1233091F038F42130A9F05E
:100D4000223001F584B58F7D12C0273091F0283014
:100D5000A1F02430B9F4809180008F7D03C0809190
:100D600080008F77809380000DC084B58F7784BD1D
:100D700009C08091B0008F7703C08091B0008F7D53
:100D80008093B000F0E0EE0FFF1FE458FF4FA591F5
:100D9000B4919FB7F894611104C08C9130953823B9
:100DA00002C0EC913E2B3C939FBF0895CF93DF93FD
:100DB000EC0181309105D1F460E082E00E94890667
:100DC00061E083E00E94890661E084E00E94890678
:100DD00060E085E00E94890660E086E00E94890666
:100DE00060E087E00E94890660E01CC082309105C7
:100DF000E9F461E082E00E94890661E083E00E94FC
:100E0000890660E084E00E94890661E085E00E9436
:100E1000890661E086E00E94890660E087E00E9422
:100E2000890661E088E00E9489065FC083309105F1
:100E3000E9F461E082E00E94890661E083E00E94BB
:100E4000890661E084E00E94890661E085E00E94F5
:100E5000890660E086E00E94890660E087E00E94E3
:100E6000890661E088E00E94890648C084309105C7
:100E7000E9F460E082E00E94890661E083E00E947C
:100E8000890661E084E00E94890660E085E00E94B6
:100E9000890660E086E00E94890661E087E00E94A2
:100EA000890661E088E00E94890641C00597E9F45F
:100EB00061E082E00E94890660E083E00E9489068A
:100EC00061E084E00E94890661E085E00E94890675
:100ED00060E086E00E94890661E087E00E94890662
:100EE00061E088E00E94890654C0C630D10531F423
:100EF00061E082E00E94890660E021C0C730D10530
:100F0000B1F461E082E00E94890661E083E00E9422
:100F1000890661E084E00E94890660E085E00E9425
:100F2000890660E086E00E94890660E049C0C8301A
:100F3000D10591F461E082E00E94890661E083E0DE
:100F40000E94890661E084E00E94890661E085E0F4
:100F50000E94890661E014C0C930D105D1F461E076
:100F600082E00E94890661E083E00E94890661E0D8
:100F700084E00E94890661E085E00E94890660E0C5
:100F800086E00E94890661E087E00E94890661E0B0
:100F90001BC0CD2BF1F461E082E00E94890661E084
:100FA00083E00E94890661E084E00E94890661E096
:100FB00085E00E94890661E086E00E94890661E082
:100FC00087E00E94890660E088E0DF91CF910C9471
:100FD0008906DF91CF9108958F929F92AF92BF9231
:100FE000CF92DF92EF92FF926B017C010E949405F9
:100FF0004B015C01C114D104E104F104F1F00E9441
:101000009405DC01CB0188199909AA09BB09883E1E
:101010009340A105B10570F321E0C21AD108E1089F
:10102000F10888EE880E83E0981EA11CB11CC11443
:10103000D104E104F10419F7DDCFFF90EF90DF90C8
:10104000CF90BF90AF909F908F9008951F920F9276
:101050000FB60F9211242F933F938F939F93AF93CB
:10106000BF938091BC029091BD02A091BE02B0914D
:10107000BF023091BB0223E0230F2D3720F40196ED
:10108000A11DB11D05C026E8230F0296A11DB11DAB
:101090002093BB028093BC029093BD02A093BE023A
:1010A000B093BF028091C0029091C102A091C20290
:1010B000B091C3020196A11DB11D8093C00290930F
:1010C000C102A093C202B093C302BF91AF919F919E
:1010D0008F913F912F910F900FBE0F901F901895F9
:1010E000789484B5826084BD84B5816084BD85B503
:1010F000826085BD85B5816085BD80916E0081600F
:1011000080936E00109281008091810082608093B4
:1011100081008091810081608093810080918000B6
:101120008160809380008091B10084608093B100E1
:101130008091B00081608093B00080917A008460DB
:1011400080937A0080917A00826080937A00809107
:101150007A00816080937A0080917A008068809321
:101160007A001092C10020E042E060E182EA92E061
:101170000E94A303E0910902F0910A0282E08083B9
:10118000E0910502F09106021082E0910702F091D1
:1011900008028FEC808310921102E0910D02F09111
:1011A0000E0286E08083E0910B02F0910C028081B8
:1011B00080618083E0910B02F0910C028081886055
:1011C0008083E0910B02F0910C0280818068808323
:1011D000E0910B02F0910C0280818F7D808382E090
:1011E0000E94B90583E00E94B90584E00E94B90518
:1011F00085E00E94B90586E00E94B90587E00E945B
:10120000B90588E00E94B90589E00E94B9058AE025
:101210000E94B9058BE00E94B9058CE00E94B905D7
:101220008DE00E94B90540E050E063E082EA92E080
:101230000E94930160E082EA92E00E94890362E0EA
:1012400082EA92E00E94B4018BE39FE10197F1F7FB
:1012500060E082EA92E00E94A901C090AB01D090C8
:10126000AC010D2C000CEE08FF08F7FE0EC06DE27D
:1012700082EA92E00E94A90144275527BA014C193D
:101280005D096E097F092AE003C02AE0B701A601C3
:1012900082EA92E00E940C0380E4382E94E6492E04
:1012A000512C2AE0622E712C38EEC32E33E0D32E5F
:1012B00030927C0080917A00806480937A008091E3
:1012C0007A0086FDFCCF609178008091790070E013
:1012D000782B072E000C880B990B0E94300B20E016
:1012E00030E040EA50E40E94BC0B20E030E048ECE3
:1012F00052E40E94BC0B20E030EC4FE754E40E9423
:10130000860A0E94F80A4B015C017093AC0160935D
:10131000AB01CB01B2010E94290C7B017093AA01A1
:101320006093A901B3010E94290C8B01EC01709319
:10133000A8016093A7019093A6018093A501C40121
:10134000B6010E94290CCB010E94D60660E08AE01B
:101350000E94890661E08BE00E94890661E08CE0D2
:101360000E94890661E08DE00E9489066AE070E0D3
:1013700080E090E00E94EC07C7010E94D60661E081
:101380008AE00E94890660E08BE00E94890661E0A5
:101390008CE00E94890661E08DE00E9489066AE087
:1013A00070E080E090E00E94EC07C8010E94D60641
:1013B00061E08AE00E94890661E08BE00E94890674
:1013C00060E08CE00E94890661E08DE00E94890661
:1013D0006AE070E080E090E00E94EC07CE010E949D
:1013E000D60661E08AE00E94890661E08BE00E94F7
:1013F000890661E08CE00E94890660E08DE00E9431
:1014000089066AE070E080E090E00E94EC07092C19
:10141000000CAA08BB08B7FE0EC06DE289EF91E090
:101420000E941A0144275527BA01481959096A0927
:101430007B092AE003C02AE0B501A40189EF91E00D
:101440000E940C0342E050E068E371E089EF91E014
:101450000E9487000E9489012BCFE9EFF1E01382FF
:10146000128288EE93E0A0E0B0E084839583A683A7
:10147000B78324E031E03183208325EC30E03587E9
:10148000248724EC30E03787268720EC30E0318B4E
:10149000208B21EC30E0338B228B22EC30E0358B3B
:1014A000248B26EC30E0378B268B118E128E138E18
:1014B000148EE6E9F2E01382128284839583A68378
:1014C000B78386E191E091838083E2EAF2E01382C0
:1014D000128288E291E091838083108A8FEF878760
:1014E0001686118A80E283871486158612861186F5
:1014F00094E0928B92E0938B91E0948B90E1958BAA
:10150000868B80E4878B80E8808F08950E949A0AFA
:101510000C94820B0E947B0B58F00E94740B40F0DD
:1015200029F45F3F29F00C946B0B51110C94B60B0E
:101530000C94710B0E94930B68F39923B1F355231C
:1015400091F3951B550BBB27AA27621773078407D6
:1015500038F09F5F5F4F220F331F441FAA1FA9F36C
:1015600035D00E2E3AF0E0E832D091505040E6955A
:10157000001CCAF72BD0FE2F29D0660F771F881FBB
:10158000BB1F261737074807AB07B0E809F0BB0BAE
:10159000802DBF01FF2793585F4F3AF09E3F5105C2
:1015A00078F00C946B0B0C94B60B5F3FE4F3983E11
:1015B000D4F3869577956795B795F7959F5FC9F7AB
:1015C000880F911D9695879597F90895E1E0660F2C
:1015D000771F881FBB1F621773078407BA0720F0A5
:1015E000621B730B840BBA0BEE1F88F7E09508950E
:1015F0000E94FF0A6894B1110C94B60B08950E94E2
:101600009B0B88F09F5798F0B92F9927B751B0F0EE
:10161000E1F0660F771F881F991F1AF0BA95C9F776
:1016200014C0B13091F00E94B50BB1E008950C9454
:10163000B50B672F782F8827B85F39F0B93FCCF307
:10164000869577956795B395D9F73EF490958095F3
:10165000709561957F4F8F4F9F4F0895E89409C013
:1016600097FB3EF490958095709561957F4F8F4FD5
:101670009F4F9923A9F0F92F96E9BB279395F695EB
:10168000879577956795B795F111F8CFFAF4BB0F69
:1016900011F460FF1BC06F5F7F4F8F4F9F4F16C0CD
:1016A000882311F096E911C0772321F09EE8872F57
:1016B000762F05C0662371F096E8862F70E060E013
:1016C0002AF09A95660F771F881FDAF7880F96958C
:1016D000879597F9089597F99F6780E870E060E033
:1016E00008959FEF80EC089500240A9416161706BB
:1016F00018060906089500240A9412161306140603
:1017000005060895092E0394000C11F4882352F065
:10171000BB0F40F4BF2B11F460FF04C06F5F7F4F1D
:101720008F4F9F4F089557FD9058440F551F59F004
:101730005F3F71F04795880F97FB991F61F09F3FBE
:1017400079F087950895121613061406551FF2CFE7
:101750004695F1DF08C0161617061806991FF1CF37
:1017600086957105610508940895E894BB2766275E
:101770007727CB0197F908950E94CF0B0C94820B29
:101780000E94740B38F00E947B0B20F0952311F01F
:101790000C946B0B0C94710B11240C94B60B0E94DF
:1017A000930B70F3959FC1F3950F50E0551F629F07
:1017B000F001729FBB27F00DB11D639FAA27F00DAA
:1017C000B11DAA1F649F6627B00DA11D661F829FD1
:1017D0002227B00DA11D621F739FB00DA11D621FB6
:1017E000839FA00D611D221F749F3327A00D611DD3
:1017F000231F849F600D211D822F762F6A2F1124B5
:101800009F5750409AF0F1F088234AF0EE0FFF1FE7
:10181000BB1F661F771F881F91505040A9F79E3F3E
:10182000510580F00C946B0B0C94B60B5F3FE4F306
:10183000983ED4F3869577956795B795F795E79594
:101840009F5FC1F7FE2B880F911D9695879597F99D
:10185000089597FB072E16F4009407D077FD09D062
:101860000E945F0C07FC05D03EF4909581959F4F38
:101870000895709561957F4F0895A1E21A2EAA1BD5
:10188000BB1BFD010DC0AA1FBB1FEE1FFF1FA21730
:10189000B307E407F50720F0A21BB30BE40BF50B2D
:1018A000661F771F881F991F1A9469F760957095B6
:1018B000809590959B01AC01BD01CF010895AA1BB5
:1018C000BB1B51E107C0AA1FBB1FA617B70710F02B
:1018D000A61BB70B881F991F5A95A9F7809590955D
:1018E000BC01CD010895EE0FFF1F0590F491E02D8E
:1018F000099481E090E0F8940C947E0CF894FFCF6A
:10190000000000001A018700B1006701E200C0007A
:10191000D4000000000049021C027902F001140208
:101920000002F10100000000A9018700790278029D
:0C193000A303930189036A030D0A000061
:107E0000112484B714BE81FFF0D085E080938100F7
:107E100082E08093C00088E18093C10086E0809377
:107E2000C20080E18093C4008EE0C9D0259A86E02C
:107E300020E33CEF91E0309385002093840096BBD3
:107E4000B09BFECF1D9AA8958150A9F7CC24DD24C4
:107E500088248394B5E0AB2EA1E19A2EF3E0BF2EE7
:107E6000A2D0813461F49FD0082FAFD0023811F036
:107E7000013811F484E001C083E08DD089C08234E0
:107E800011F484E103C0853419F485E0A6D080C0E4
:107E9000853579F488D0E82EFF2485D0082F10E0AE
:107EA000102F00270E291F29000F111F8ED06801E7
:107EB0006FC0863521F484E090D080E0DECF843638
:107EC00009F040C070D06FD0082F6DD080E0C81688
:107ED00080E7D80618F4F601B7BEE895C0E0D1E017
:107EE00062D089930C17E1F7F0E0CF16F0E7DF06D8
:107EF00018F0F601B7BEE89568D007B600FCFDCFD4
:107F0000A601A0E0B1E02C9130E011968C91119780
:107F100090E0982F8827822B932B1296FA010C0160
:107F200087BEE89511244E5F5F4FF1E0A038BF0790
:107F300051F7F601A7BEE89507B600FCFDCF97BE46
:107F4000E89526C08437B1F42ED02DD0F82E2BD052
:107F50003CD0F601EF2C8F010F5F1F4F84911BD097
:107F6000EA94F801C1F70894C11CD11CFA94CF0C13
:107F7000D11C0EC0853739F428D08EE10CD085E9AC
:107F80000AD08FE07ACF813511F488E018D01DD067
:107F900080E101D065CF982F8091C00085FFFCCF94
:107FA0009093C60008958091C00087FFFCCF809118
:107FB000C00084FD01C0A8958091C6000895E0E648
:107FC000F0E098E1908380830895EDDF803219F02E
:107FD00088E0F5DFFFCF84E1DECF1F93182FE3DFCA
:107FE0001150E9F7F2DF1F91089580E0E8DFEE27F6
:047FF000FF270994CA
:027FFE00040479
:0400000300007E007B
:00000001FF
